{
  "_format": "hh3-artifact-1",
  "contractName": "MockRouter",
  "sourceName": "contracts/mocks/MockRouter.sol",
  "abi": [
    {
      "inputs": [
        {
          "internalType": "address",
          "name": "token",
          "type": "address"
        }
      ],
      "name": "SafeERC20FailedOperation",
      "type": "error"
    },
    {
      "anonymous": false,
      "inputs": [
        {
          "indexed": true,
          "internalType": "address",
          "name": "fromToken",
          "type": "address"
        },
        {
          "indexed": true,
          "internalType": "address",
          "name": "toToken",
          "type": "address"
        },
        {
          "indexed": false,
          "internalType": "uint256",
          "name": "amountIn",
          "type": "uint256"
        },
        {
          "indexed": false,
          "internalType": "uint256",
          "name": "amountOut",
          "type": "uint256"
        }
      ],
      "name": "SwapExecuted",
      "type": "event"
    },
    {
      "inputs": [],
      "name": "fixedOut",
      "outputs": [
        {
          "internalType": "uint256",
          "name": "",
          "type": "uint256"
        }
      ],
      "stateMutability": "view",
      "type": "function"
    },
    {
      "inputs": [
        {
          "internalType": "uint256",
          "name": "amountIn",
          "type": "uint256"
        },
        {
          "internalType": "address[]",
          "name": "path",
          "type": "address[]"
        }
      ],
      "name": "getAmountsOut",
      "outputs": [
        {
          "internalType": "uint256[]",
          "name": "amounts",
          "type": "uint256[]"
        }
      ],
      "stateMutability": "view",
      "type": "function"
    },
    {
      "inputs": [
        {
          "internalType": "bool",
          "name": "_shouldFail",
          "type": "bool"
        }
      ],
      "name": "setFail",
      "outputs": [],
      "stateMutability": "nonpayable",
      "type": "function"
    },
    {
      "inputs": [
        {
          "internalType": "uint256",
          "name": "_amount",
          "type": "uint256"
        }
      ],
      "name": "setFixedOut",
      "outputs": [],
      "stateMutability": "nonpayable",
      "type": "function"
    },
    {
      "inputs": [],
      "name": "shouldFail",
      "outputs": [
        {
          "internalType": "bool",
          "name": "",
          "type": "bool"
        }
      ],
      "stateMutability": "view",
      "type": "function"
    },
    {
      "inputs": [
        {
          "internalType": "uint256",
          "name": "amountIn",
          "type": "uint256"
        },
        {
          "internalType": "uint256",
          "name": "amountOutMin",
          "type": "uint256"
        },
        {
          "internalType": "address[]",
          "name": "path",
          "type": "address[]"
        },
        {
          "internalType": "address",
          "name": "to",
          "type": "address"
        },
        {
          "internalType": "uint256",
          "name": "deadline",
          "type": "uint256"
        }
      ],
      "name": "swapExactTokensForTokens",
      "outputs": [
        {
          "internalType": "uint256[]",
          "name": "amounts",
          "type": "uint256[]"
        }
      ],
      "stateMutability": "nonpayable",
      "type": "function"
    }
  ],
  "bytecode": "0x60806040526103e86001553480156014575f5ffd5b50610807806100225f395ff3fe608060405234801561000f575f5ffd5b5060043610610060575f3560e01c806338ed173914610064578063678d22041461008d5780639bf809de146100a95780639d769402146100c0578063d06ca61f146100e2578063e2852fa7146100f5575b5f5ffd5b61007761007236600461064b565b610108565b60405161008491906106b8565b60405180910390f35b5f546100999060ff1681565b6040519015158152602001610084565b6100b260015481565b604051908152602001610084565b6100e06100ce3660046106fa565b5f805460ff1916911515919091179055565b005b6100776100f0366004610720565b6103dd565b6100e0610103366004610768565b600155565b5f5460609060ff16156101555760405162461bcd60e51b815260206004820152601060248201526f135bd8dad49bdd5d195c8e8819985a5b60821b60448201526064015b60405180910390fd5b8142111561019b5760405162461bcd60e51b8152602060048201526013602482015272135bd8dad49bdd5d195c8e88195e1c1a5c9959606a1b604482015260640161014c565b60028410156101e75760405162461bcd60e51b815260206004820152601860248201527709adec6d6a4deeae8cae47440d2dcecc2d8d2c840e0c2e8d60431b604482015260640161014c565b6001548611156102395760405162461bcd60e51b815260206004820152601f60248201527f4d6f636b526f757465723a20696e73756666696369656e74206f757470757400604482015260640161014c565b604080516002808252606082018352909160208301908036833701905050905086815f8151811061026c5761026c61077f565b6020026020010181815250506001548160018151811061028e5761028e61077f565b6020026020010181815250506102d833308988885f8181106102b2576102b261077f565b90506020020160208101906102c79190610793565b6001600160a01b03169291906104d9565b61032583600154878760018a8a90506102f191906107ac565b8181106103005761030061077f565b90506020020160208101906103159190610793565b6001600160a01b03169190610546565b84846103326001826107ac565b8181106103415761034161077f565b90506020020160208101906103569190610793565b6001600160a01b031685855f8181106103715761037161077f565b90506020020160208101906103869190610793565b6001600160a01b03167fdd36740e2a012d93061a0d99eaa9107860955de4e90027d3cf465a055026c407896001546040516103cb929190918252602082015260400190565b60405180910390a39695505050505050565b5f5460609060ff16156104255760405162461bcd60e51b815260206004820152601060248201526f135bd8dad49bdd5d195c8e8819985a5b60821b604482015260640161014c565b60028210156104715760405162461bcd60e51b815260206004820152601860248201527709adec6d6a4deeae8cae47440d2dcecc2d8d2c840e0c2e8d60431b604482015260640161014c565b604080516002808252606082018352909160208301908036833701905050905083815f815181106104a4576104a461077f565b602002602001018181525050600154816001815181106104c6576104c661077f565b6020026020010181815250509392505050565b6040516001600160a01b0384811660248301528381166044830152606482018390526105409186918216906323b872dd906084015b604051602081830303815290604052915060e01b6020820180516001600160e01b03838183161783525050505061057c565b50505050565b6040516001600160a01b0383811660248301526044820183905261057791859182169063a9059cbb9060640161050e565b505050565b5f5f60205f8451602086015f885af18061059b576040513d5f823e3d81fd5b50505f513d915081156105b25780600114156105bf565b6001600160a01b0384163b155b1561054057604051635274afe760e01b81526001600160a01b038516600482015260240161014c565b5f5f83601f8401126105f8575f5ffd5b50813567ffffffffffffffff81111561060f575f5ffd5b6020830191508360208260051b8501011115610629575f5ffd5b9250929050565b80356001600160a01b0381168114610646575f5ffd5b919050565b5f5f5f5f5f5f60a08789031215610660575f5ffd5b8635955060208701359450604087013567ffffffffffffffff811115610684575f5ffd5b61069089828a016105e8565b90955093506106a3905060608801610630565b95989497509295919493608090920135925050565b602080825282518282018190525f918401906040840190835b818110156106ef5783518352602093840193909201916001016106d1565b509095945050505050565b5f6020828403121561070a575f5ffd5b81358015158114610719575f5ffd5b9392505050565b5f5f5f60408486031215610732575f5ffd5b83359250602084013567ffffffffffffffff81111561074f575f5ffd5b61075b868287016105e8565b9497909650939450505050565b5f60208284031215610778575f5ffd5b5035919050565b634e487b7160e01b5f52603260045260245ffd5b5f602082840312156107a3575f5ffd5b61071982610630565b818103818111156107cb57634e487b7160e01b5f52601160045260245ffd5b9291505056fea2646970667358221220c341fc93cb5bb2597f473c0975d2baf42c672740436bb84417f5c5fc73cdf59764736f6c634300081c0033",
  "linkReferences": {},
  "deployedLinkReferences": {},
  "immutableReferences": {},
  "inputSourceName": "project/contracts/mocks/MockRouter.sol",
  "buildInfoId": "solc-0_8_28-d12f40c4b1a95bd24c6d43f8e3730302e8631243"
}